:020000040800F2
:100000005808002001010008AD0D0008D90C0008B7
:10001000A90D00086D0100084F0E00080000000047
:10002000000000000000000000000000DD0D0008DE
:100030007101000800000000B10D0008DF0D00088C
:100040001B0100081B0100081B0100081B01000820
:100050001B0100081B0100081B0100081B01000810
:100060001B0100081B0100081B0100081B01000800
:100070001B0100081B0100081B0100081B010008F0
:100080001B0100081B0100081B0100081B010008E0
:100090001B0100081B0100081B0100081B010008D0
:1000A0001B0100081B0100081B0100081B010008C0
:1000B0001B0100081B0100081B0100081B010008B0
:1000C0001B0100081B0100081B0100081B010008A0
:1000D0001B0100081B0100081B0100081B01000890
:1000E0001B0100081B0100081B010008DFF80CD0F1
:1000F00000F02AF80048004789110008580800203D
:100100000648804706480047FEE7FEE7FEE7FEE7B1
:10011000FEE7FEE7FEE7FEE7FEE7FEE74D0E00081E
:10012000ED000008D2B201E000F8012B491EFBD21D
:1001300070470022F6E710B513460A4604461946F2
:10014000FFF7F0FF204610BD064C074D06E0E068C3
:1001500040F0010394E8070098471034AC42F6D30E
:10016000FFF7C8FF043200082432000800BFFEE792
:10017000704772B600BFFEE72DE9F847034600223C
:1001800094466EE14FF0010808FA02F4D1F80080BD
:1001900008EA0400A0427DD1DFF8DCA2D1F8048097
:1001A000A8EB0A09D0453AD014DCB8F1030F50D0BF
:1001B00009DCB8F1000F31D0B8F1010F1CD0B8F153
:1001C000020F49D120E0B8F1110F18D0B8F1120F89
:1001D00042D11EE0B9F5881F25D006DCB9F5803F75
:1001E00020D0B9F5801F37D11AE0B9F5001F18D01B
:1001F000B9F5041F30D117E0D1F80CC02DE0D1F8CB
:100200000C8008F1040C28E0D1F80C8008F1080CEF
:1002100023E0D1F80C8008F10C0C1EE000BF00BFF9
:1002200000BF00BF00BF00BFD1F80880B8F1000FC9
:1002300002D14FF0040C0BE0D1F80880B8F1010FA7
:1002400003D14FF0080C1C6102E04FF0080C5C6118
:1002500003E04FF0000C00E000BF00BFFF2801D812
:10026000984601E003F104084646FF2802D84FEA09
:10027000820803E0A2F108084FEA88084746D6F84A
:1002800000804FF00F0909FA07F928EA09080CFA6B
:1002900007F900E088E048EA0908C6F80080D1F8CC
:1002A000048008F08058B8F1805F7DD100BFDFF88E
:1002B000CC81D8F8188048F00108DFF8C091C9F85F
:1002C0001880C846D8F8188008F00108CDF80080DA
:1002D00000BF00BF4FEAB9384FEA920958F82950D9
:1002E0004FEA82784FEA18794FF00F0808FA09F8B8
:1002F00025EA0805DFF88881434502D14FF0000860
:1003000016E0DFF88081434502D14FF001080FE08D
:10031000DFF87481434502D14FF0020808E0DFF8AE
:100320006C81434502D14FF0030801E04FF004080F
:100330004FEA82794FEA197908FA09F848EA05057F
:10034000DFF84C814FEA920948F82950D1F804802F
:1003500008F48018B8F5801F0AD1DFF83881D8F882
:10036000008048EA0008DFF82C91C9F8008009E015
:10037000DFF82081D8F8008028EA0008DFF814911F
:10038000C9F80080D1F8048008F40018B8F5001FFF
:1003900010D1DFF8008108F10408D8F8008048EA9D
:1003A0000008DFF8F09000E05AE009F10409C9F80C
:1003B00000800DE0DFF8DC8008F10408D8F8008048
:1003C00028EA0008DFF8CC9009F10409C9F8008098
:1003D000D1F8048008F40038B8F5003F0ED1DFF8FA
:1003E000B480A8F10408D8F8008048EA0008DFF8D3
:1003F000A490A9F10409C9F800800DE0DFF8948009
:10040000A8F10408D8F8008028EA0008DFF88490F2
:10041000A9F10409C9F80080D1F8048008F48038F3
:10042000B8F5803F0ED1DFF86C80A8F10808D8F845
:10043000008048EA0008DFF85C90A9F10809C9F8D3
:1004400000800DE0DFF84C80A8F10808D8F80080A3
:1004500028EA0008DFF83C90A9F10809C9F80080F3
:10046000521CD1F8008028FA02F8B8F1000F7FF48E
:1004700089AEBDE8F88700000000111000100240AE
:1004800000080140000C0140001001400014014030
:100490000800014008040140024693680B400BB17C
:1004A000012000E0002070470AB1016101E00B0467
:1004B0000361704701480068704700000000002099
:1004C00003480068034909780844014908607047F7
:1004D000000000200800002010B50848006840F027
:1004E000100006490860032000F098F80F2000F083
:1004F00007F800F02BF8002010BD0000002002409B
:1005000070B504460E4800784FF47A71B1FBF0F0F4
:100510000C490968B1FBF0F5284600F0C3FB08B1AF
:10052000012070BD102C07D200222146501E00F081
:1005300037F80548046001E00120F2E70020F0E709
:10054000080000200C0000200400002008B500BFB7
:100550001148806940F001000F49886108468069B0
:1005600000F00100009000BF00BF00BF0846C06956
:1005700040F08050C8610846C06900F0805000908B
:1005800000BF00BF00BF0549486820F0E06040F0B0
:100590000070486000BF08BD00100240000001402C
:1005A0002DE9F05F80460D461646002700F052FC0C
:1005B000074639462A46334601F00700C0F1070ACC
:1005C000BAF1040F02D94FF0040A01E0C0F1070AA2
:1005D000D14600F1040ABAF1070F02D24FF0000A27
:1005E00001E0A0F1030AD4464FF0010A0AFA09FA21
:1005F000AAF1010A0AEA020A0AFA0CFA4FF0010B00
:100600000BFA0CFBABF1010B0BEA030B4AEA0B04F0
:100610002146404600F026FCBDE8F09F00BF00F0F8
:100620000702064B19684FF6FF031940044B0B43B2
:1006300043EA0221014B196000BF70470CED00E056
:100640000000FA0570B504460D460CB9012070BDD6
:100650005A48006800F00700A8420ED257480068C8
:1006600020F007002843554908600846006800F05C
:100670000700A84201D00120E9E7207800F002003D
:1006800002281DD1207800F00400042805D14C4830
:10069000406840F4E0604A494860207800F0080073
:1006A000082805D14648406840F4605044494860F5
:1006B0004348406820F0F000A16808434049486082
:1006C000207800F0010078B36068012806D13C482A
:1006D000006800F4003090B90120B8E76068022893
:1006E00006D13748006800F0007040B90120AEE73D
:1006F0003348006800F0020008B90120A7E730483D
:10070000406820F00300616808432D494860FFF706
:10071000D1FE064609E0FFF7CDFE801B41F288318D
:10072000884202D9032092E707E02548406800F09C
:100730000C006168B0EB810FEDD12048006800F03B
:100740000700A8420ED91D48006820F00700284382
:100750001A4908600846006800F00700A84201D066
:10076000012074E7207800F00400042807D1144821
:10077000406820F4E060E16808431149486020784F
:1007800000F00800082808D10D48406820F46050A7
:10079000216940EAC1000A49486000F019F8084997
:1007A0004968C1F30311074A515CC8400649086013
:1007B00006480068FFF7A4FE002048E7002002403A
:1007C000001002402C1A00080C0000200400002039
:1007D00070B500210022002400230020134D696819
:1007E00001F00C05F5B1042D02D0082D19D101E05E
:1007F0000F4819E00F4DC1F38346AB5D01F480351E
:1008000055B10A4D6D68C5F340450B4E725D084DFC
:100810005D43B5FBF2F402E0084D03FB05F420460E
:1008200002E000BF024800BF00BF70BD00100240E0
:1008300000127A001A1A00082A1A000800093D005E
:10084000F8B504460CB90120F8BD207800F001008D
:10085000002878D0F848406800F00C0004280CD03C
:10086000F548406800F00C00082811D1F2484068B3
:1008700000F48030B0F5803F0AD1EF48006800F402
:10088000003000285FD0606800285CD10120DBE7E1
:1008900000BF6068B0F5803F06D1E748006840F4CB
:1008A0008030E549086028E0606858B9E24800688F
:1008B00020F48030E04908600846006820F4802079
:1008C00008601AE06068B0F5A02F0BD1DA48006824
:1008D00040F48020D84908600846006840F4803021
:1008E00008600AE0D448006820F48030D2490860EB
:1008F0000846006820F48020086000BF606888B166
:10090000FFF7D8FD054606E0FFF7D4FD401B64283D
:1009100001D9032098E7C848006800F40030002897
:10092000F2D010E0FFF7C6FD054606E0FFF7C2FD76
:10093000401B642801D9032086E7BF48006800F403
:1009400000300028F2D1207800F00200022857D1B0
:10095000B948406800F00C0050B1B748406800F05A
:100960000C00082818D1B448406800F4803098B9C9
:10097000B148006800F0020020B12069012801D0D0
:10098000012061E7AC48006820F0F800616940EAA6
:10099000C100A949086033E02069E8B10120A749F6
:1009A0000860FFF787FD054606E0FFF783FD401B63
:1009B000022801D9032047E79F48006800F00200A1
:1009C0000028F2D09C48006820F0F800616940EAF5
:1009D000C1009949086013E0002098490860FFF7BA
:1009E00069FD054606E0FFF765FD401B022801D9B9
:1009F000032029E79048006800F002000028F2D1A7
:100A0000207800F0080008282DD1A069B8B1012095
:100A10008B490860FFF74EFD054606E0FFF74AFDEB
:100A2000401B022801D903200EE78348406A00F0EA
:100A300002000028F2D0012000F0BCF913E00020F1
:100A40007F490860FFF736FD054606E0FFF732FDF7
:100A5000401B022801D90320F6E67748406A00F0DF
:100A600002000028F2D1207800F00400042873D19D
:100A700000277148C06900F0805070B900BF6E480F
:100A8000C06940F080506C49C8610846C06900F0F8
:100A90008050009000BF00BF01276A48006800F442
:100AA0008070B0B96748006840F48070654908609C
:100AB000FFF700FD054606E0FFF7FCFC401B64283D
:100AC00001D90320C0E65F48006800F48070002868
:100AD000F2D000BFE068012806D15748006A40F014
:100AE00001005549086227E0E06858B95248006A99
:100AF00020F00100504908620846006A20F0040016
:100B0000086219E0E06805280BD14B48006A40F004
:100B10000400494908620846006A40F00100086282
:100B20000AE04548006A20F001004349086208468F
:100B3000006A20F00400086200BFE068A0B1FFF77F
:100B4000B9FC054609E0FFF7B5FC401B41F28831CE
:100B5000884202D9032077E622E03748006A00F095
:100B600002000028EFD012E0FFF7A4FC054608E0E1
:100B7000FFF7A0FC401B41F28831884201D90320D5
:100B800062E62D48006A00F002000028F0D1012F33
:100B900005D12948C06920F080502749C86100BFAD
:100BA000E069C8B32448406800F00C00082860D011
:100BB000E069022848D1002020490866FFF77AFC46
:100BC000054606E0FFF776FC401B022801D903200A
:100BD0003AE61948006800F000700028F2D1206A57
:100BE000B0F5803F07D11448406820F40030A16878
:100BF000084311494860D4E9080108430E4949688F
:100C000021F4741108430C49486001200B4908661F
:100C1000FFF750FC054607E03DE0FFF74BFC401BAB
:100C2000022801D903200FE60348006800F0007095
:100C30000028F2D02FE000000010024000004242E5
:100C40008004424200700040002014490866FFF70B
:100C500031FC054606E0FFF72DFC401B022801D9B8
:100C60000320F1E50E48006800F000700028F2D182
:100C700011E0E069012800D1E6E50948466806F47C
:100C80008031206A814204D106F47011606A814289
:100C900001D00120D8E50020D6E500000000424246
:100CA0000010024070B504462546681EB0F1807FF2
:100CB00001D301200FE0681E4FF0E02148610F21B1
:100CC0004FF0FF3000F0CEF800204FF0E0218861B7
:100CD00007200861002070BD00BFFEE700B585B0A9
:100CE0000020019002900390049000BF2B4880697F
:100CF00040F02000294988610846806900F0200002
:100D0000009000BF00BF00BF0846806940F00400AB
:100D100088610846806900F00400009000BF00BFB1
:100D200000BF0846806940F0080088610846806975
:100D300000F00800009000BF00BF01220F211848FA
:100D4000FFF7B2FB00224FF440711648FFF7ACFBEF
:100D50000F200190012002900020039002200490B7
:100D600001A90F48FFF708FAF02001900020029037
:100D70000120039001A90A48FFF7FEF94FF44070E3
:100D8000019011200290002003900220049001A9FC
:100D90000448FFF7F1F905B000BD00000010024063
:100DA00000080140000C014000BFFEE700BFFEE765
:100DB0007047000008B508490968C9084FF47A72FD
:100DC000B1FBF2F14143009100BF00BF00994A1E00
:100DD00000920029F9D108BD0C000020704710B521
:100DE000FFF76EFB10BD00B58FB0282105A8FFF7F7
:100DF000A0F914216846FFF79CF901200590000432
:100E00000690002007900120099002200C90C10359
:100E10000D914FF4E0110E9105A8FFF711FD08B1F7
:100E2000FFF7A7F90F200090022001900020029008
:100E30004FF4806003900020049002216846FFF781
:100E400001FC08B1FFF795F90FB000BD704700BF76
:100E5000FEE7000002480068C0F30220704700006F
:100E60000CED00E010B5002804DB0A07130E054A5C
:100E7000135406E00A07140E034A00F00F031B1F69
:100E8000D45410BD00E400E018ED00E002E008C812
:100E9000121F08C1002AFAD170477047002001E0F4
:100EA00001C1121F002AFBD1704700002DE9FC414F
:100EB00005460C4625B1012D10D0032D37D12BE06E
:100EC000A4F130001C49C96801EB810100EB41002D
:100ED0001949C860C86800F045FB29E01648C06899
:100EE000154908600020C86008460472086800F0D0
:100EF00039FB064606EB4600C700002000900E496D
:100F000001900A7A07EBD77148101823002100F0EE
:100F10002BFC0120BDE8FC810748C0680A2190FB3A
:100F2000F1F00549C860C86800F01CFB00E000BF94
:100F300000BF0148007CEDE7440400202DE9FC419E
:100F400005460C4635B1012D12D0022D32D0032DAD
:100F50004AD13EE0A4F130002649C96801EB810185
:100F600000EB41002349C860C86800F0FBFA3CE090
:100F70002048C0681F4948600020C86000F0D6F8CB
:100F80001C49086008460472086800F0EBFA06463F
:100F900006EB4600C70000200090164901900A7A2F
:100FA00007EBD77148101823002100F0DDFB01206A
:100FB000BDE8FC810F48C0680E4948600020C86049
:100FC00000F0B4F80B490860086800F0CBFA032081
:100FD000EEE70848C0680A2190FBF1F00549C860B7
:100FE000C86800F0BFFA00E000BF00BF0148007C05
:100FF000DEE70000440400202DE9FC4105460C46D4
:1010000015B1012D2FD113E02646194800F0D0FA72
:10101000A6F130001649C96801EB810100EB4100DF
:101020001349C860C86800F09DFA0020BDE8FC8143
:1010300000200F49C860486008460472086800F044
:1010400091FA064606EB4600C700002000900849CA
:1010500001900A7A07EBD77148101823002100F09D
:1010600083FB0120E2E700BF00BF0148007CDDE711
:10107000440400202DE9FC4105460C4625B1012D14
:1010800015D0022D35D129E0A4F130001B49C968E3
:1010900001EB810100EB41001849C8600846C068B7
:1010A0004860C86800F05EFA0220BDE8FC81134881
:1010B00004720146086800F055FA064606EB460041
:1010C000C700002000900D4901900A7A07EBD77104
:1010D00048101823002100F047FB0BE00748006888
:1010E0000649C86000200860C86800F03BFA00208C
:1010F000DBE700BF00BF0148007CD6E744040020C6
:101100000146412901D1032070472B2905D02D2903
:1011100003D02F2901D02A2901D10120F4E73D294C
:1011200001D10220F0E70020EEE700001548007A28
:101130002B2805D1134800681249496808447047B4
:101140001048007A2D2805D10E4800680D494968DD
:10115000401AF4E70B48007A2A2805D109480068AC
:10116000084949684843EAE70648007A2F2806D12B
:10117000044800680349496890FBF1F0DFE742F258
:101180000F70DCE744040020FFF7A6F9FFF72BFE01
:10119000FFF7A4FD00F0B0FA00F020FA01E000F043
:1011A0002FFCFCE770B506460D46072416E02846DE
:1011B00000F03CF846FA04F000F0010018B92846A7
:1011C00000F058F802E0284600F066F8284600F0E3
:1011D0003FF8284600F02AF8601E44B2002CE6DAF8
:1011E00070BD10B50446204600F056F8204600F0C9
:1011F0002FF8204600F03EF8204600F017F810BD0A
:1012000010B50446204600F023F8204600F032F8DE
:10121000204600F041F810BD10B50446204600F00D
:1012200017F8204600F002F810BD000000EB801116
:10123000064A02EB01118988090400EB8012034B76
:1012400003EB02121268116100BF704734000020E6
:1012500000EB8011064A02EB0111898800EB801235
:10126000034B03EB02121268116100BF70470000CC
:101270003400002000EB8011064A02EB011189893D
:10128000090400EB8012034B03EB02129268116118
:1012900000BF70473400002000EB8011064A02EBCB
:1012A0000111898900EB8012034B03EB0212926853
:1012B000116100BF70470000340000202DE9F041AB
:1012C00006460F4614462046FFF78BFF214678203E
:1012D000FFF768FF2046FFF79FFF21464020FFF7FA
:1012E00061FF2046FFF798FF002508E0705D21466A
:1012F000FFF758FF2046FFF78FFF681CC5B2BD42BD
:10130000F4D32046FFF77CFFBDE8F08170B50546B9
:101310000C462046FFF765FF21467820FFF742FF85
:101320002046FFF779FF21460020FFF73BFF2046CC
:10133000FFF772FF21462846FFF734FF2046FFF7EC
:101340006BFF2046FFF75CFF70BDF0B50346154606
:1013500000260024002701B10DB90020F0BD2BB9F3
:1013600030200870002048700120F7E7002B07DAD2
:101370000127B3F1004F01D1FA0702E05A4200E021
:101380001A46104600BF04F1010C0CF0FF044FF0A8
:101390000A0CB0FBFCF00028F5D10FB1601CC4B200
:1013A000601CA84202DD00200870D7E72646002016
:1013B000885500BF0A20B2FBF0FC00FB1C20303037
:1013C000A6F1010C0CF0FF0C664601F80C000A2097
:1013D000B2FBF0F2002AEDD10FB12D2008702046AB
:1013E000BCE700007FB500200090019002900390C0
:1013F0000026002421E0564830F8141000225548F9
:10140000FFF752F800250DE0534830F81510514809
:10141000FFF742F820B90120694601EB84014855E5
:10142000681CC5B2042DEFDB494830F814100122C6
:101430004848FFF739F8601CC4B2042CDBDB47488E
:101440000078002858D19DF8000008B1312649E005
:101450009DF8010008B1322644E09DF8020008B171
:1014600033263FE09DF8030008B141263AE09DF89D
:10147000040008B1342635E09DF8050008B1352692
:1014800030E09DF8060008B136262BE09DF80700F5
:1014900008B12B2626E09DF8080008B1372621E088
:1014A0009DF8090008B138261CE09DF80A0008B133
:1014B000392617E09DF80B0008B12D2612E09DF8A3
:1014C0000C0008B12A260DE09DF80D0008B1302669
:1014D00008E09DF80E0008B13D2603E09DF80F00DE
:1014E00000B12F2696B301201C49087000201C492A
:1014F0000870304604B070BD0120002410E00025C3
:1015000009E0694601EB8401495D012901D1002010
:1015100003E0691CCDB2042DF3DB00BF611CCCB22B
:10152000042CECDB70B10E490978491C0C4A11708F
:1015300011460978032908DB0021084A1170084A7E
:10154000117002E00021064A117000BF0020D1E7AF
:10155000100000200008014018000020200000209A
:101560002100002030B589B00446102205A920468C
:10157000FFF7EBFE05460BA207CA02AB07C300202C
:101580000090182302AA0146019000F0FFF9002004
:101590000090182305AA0146019000F0F7F92846AB
:1015A00009B030BD20202020202020200000000095
:1015B0001CB5044604B91CBD002020606060207288
:1015C000E06020740090182330220146019000F062
:1015D000CBF8002000F0A2F800BFECE710B50248FD
:1015E000FFF7E6FF10BD00004404002010B50446DC
:1015F0002146AE20FFF78AFE21460020FFF786FE37
:1016000021461020FFF782FE21464020FFF77EFE94
:1016100021468120FFF77AFE2146CF20FFF776FE94
:101620002146A120FFF772FE2146C820FFF76EFE7B
:101630002146A620FFF76AFE2146A820FFF766FE96
:1016400021463F20FFF762FE2146D320FFF75EFED2
:1016500021460020FFF75AFE2146D520FFF756FE0F
:1016600021468020FFF752FE2146D920FFF74EFE8B
:101670002146F120FFF74AFE2146DA20FFF746FE19
:1016800021461220FFF742FE2146DB20FFF73EFEF7
:1016900021464020FFF73AFE21462020FFF736FE84
:1016A00021460220FFF732FE21468D20FFF72EFE55
:1016B00021461420FFF72AFE2146A420FFF726FE2C
:1016C0002146A620FFF722FE2146AF20FFF71EFE8F
:1016D00010BD000070B505460C4604EB84100549AA
:1016E00001EB001095E84E004EC02046FFF77EFF4C
:1016F00070BD0000340000201FB507480090029024
:101700008015ADF804004000ADF80C0000216846DB
:10171000FFF7E0FF1FBD0000000C014070B505465B
:1017200000241BE004F1B001C8B22946FFF7EEFD2A
:1017300029460020FFF7EAFD29461020FFF7E6FDC5
:1017400005EB8511074A02EB0111103101EBC410C2
:101750002A468021FFF7B2FD601CC4B2082CE1DBF1
:1017600070BD0000340000202DE9FF4F83B0119CB4
:1017700003F007060EB1012600E0002606EBE306A3
:101780004FEA630A06FB0AFC059EA6F120098FB208
:101790000C2B01D1794D0AE0102B01D1784D06E0D8
:1017A000182B01D1774D02E007B0BDE8F08F002281
:1017B000DEE009FB0C26AE5D02964FF00008D0E09B
:1017C000029E06F0800686B3109E7EBBC1F3CF0654
:1017D00001F0070ACDF804A04FF0010BDDF804A0DA
:1017E0000BFA0AFB1FFA8BFACDF800A004EB841A5F
:1017F000DFF894B10BEB0A1A0AF1100A00EBC61BD2
:101800001AF80BA0DDF800B04AEA0B0A0AF0FF0B49
:1018100004EB841ADFF870E10EEB0A1A0AF1100AE1
:1018200000EBC61E0AF80EB08CE02DE0FFE7C1F316
:10183000CF0601F0070ACDF804A04FF0010BDDF848
:1018400004A00BFA0AFB1FFA8BFACDF800A004EBF8
:10185000841ADFF834B10BEB0A1A0AF1100A00EB14
:10186000C61B1AF80BA0DDF800B02AEA0B0A04EB3D
:10187000841BDFF814E10EEB0B1B0BF1100B00EBDC
:10188000C61E0BF80EA05DE0109E66BBC1F3CF062E
:1018900001F0070ACDF804A04FF0010BDDF804A019
:1018A0000BFA0AFB1FFA8BFACDF800A004EB841A9E
:1018B000DFF8D4B00BEB0A1A0AF1100A00EBC61BD2
:1018C0001AF80BA0DDF800B02AEA0B0A04EB841B1F
:1018D000DFF8B4E00EEB0B1B0BF1100B00EBC61E98
:1018E0000BF80EA02EE0C1F3CF0601F0070ACDF8E9
:1018F00004A04FF0010BDDF804A00BFA0AFB1FFA5D
:101900008BFACDF800A004EB841ADFF87CB00BEB67
:101910000A1A0AF1100A00EBC61B1AF80BA0DDF830
:1019200000B04AEA0B0A0AF0FF0B04EB841ADFF856
:1019300058E00EEB0A1A0AF1100A00EBC61E0AF86C
:101940000EB000BF029E7606360E0296491CCE1BD4
:101950009E4202D13946401C07E008F101061FFAF9
:1019600086F8B8F1080FFFF62BAF00BF561CB2B2D5
:101970006245FFF41EAF00BF16E70000441A0008DE
:10198000B81E0008A8240008340000202DE9FC43FC
:1019900006460F4614461D46DDE9098912E0CDE9E9
:1019A000008922782B4639463046FFF7DDFE06EBEC
:1019B000650086B2C5F18000B04202DA00267819CF
:1019C00087B2641C2078202802DB20787E28E6DDA0
:1019D000BDE8FC8370B504462046FFF791FB064640
:1019E0000548057C054850F825202146304690479B
:1019F00005460148057470BD440400202400002001
:101A000010B5FFF7EFFC044634B12CB12046FFF7C8
:101A1000E1FF0020FFF782FE10BD02030405060768
:101A200008090A0B0C0D0E0F101001020000000037
:101A3000000000000102030406070809000000007E
:101A4000010203040000000000000000000000008C
:101A5000000000003F4000000000000000003000D7
:101A6000400030004000000009000BC03D000BC0EA
:101A70003D00090018C024407FE022403180000072
:101A8000180024C01B000D803240018003801C40E0
:101A900027401C800740004010006000000000004C
:101AA000000000000000000000001F8020404020D7
:101AB0000000402020401F800000000009000600B8
:101AC0001F80060009000000040004003F8004009D
:101AD0000400000000100060000000000000000092
:101AE00004000400040004000400000000000040A2
:101AF0000000000000000000002001C006003800C7
:101B0000400000001F802040204020401F80000037
:101B1000000010403FC000400000000018C02140FD
:101B200022402440184000001080204024402440DF
:101B30001B80000002000D0011003FC001400000AA
:101B40003C80244024402440238000001F80244007
:101B500024403440038000003000200027C03800BB
:101B6000200000001B802440244024401B800000F3
:101B70001C0022C0224022401F8000000000000004
:101B800008400000000000000000000004600000A9
:101B900000000000000004000A0011002080404006
:101BA0000900090009000900090000000000404088
:101BB000208011000A0004001800200023402400A7
:101BC000180000001F802040274029401F400000CF
:101BD000004007C039000F0001C0004020403FC056
:101BE000244024401B8000001F80204020402040D3
:101BF0003080000020403FC0204020401F80000077
:101C000020403FC024402E4030C0000020403FC054
:101C100024402E00300000000F00108020402240A1
:101C20003380020020403FC0040004003FC0204039
:101C3000204020403FC02040204000000060202085
:101C400020203FC02000200020403FC024400B0047
:101C500030C0204020403FC020400040004000C035
:101C60003FC03C0003C03C003FC0000020403FC0DC
:101C70000C4023003FC020001F8020402040204017
:101C80001F80000020403FC02440240018000000B6
:101C90001F802140214020E01FA0000020403FC0C5
:101CA0002440260019C0004018C02440244022408F
:101CB00031800000300020403FC020403000000054
:101CC00020003F80004000403F80200020003E0078
:101CD00001C0070038002000380007C03C0007C0E2
:101CE00038000000204039C0060039C02040000004
:101CF0002000384007C0384020000000304021C09C
:101D00002640384020C00000000000007FE0402056
:101D100040200000000070000C0003800040000024
:101D20000000402040207FE0000000000000200074
:101D30004000200000000000001000100010001003
:101D40000010001000000000400000000000000033
:101D5000000002800540054003C0004020003FC055
:101D6000044004400380000000000380044004405D
:101D70000640000000000380044024403FC00040B3
:101D800000000380054005400340000000000440BF
:101D90001FC0244024402000000002E005500550F0
:101DA0000650042020403FC00440040003C000400F
:101DB0000000044027C00040000000000010001098
:101DC000041027E00000000020403FC00140070051
:101DD00004C00440204020403FC0004000400000BC
:101DE00007C0040007C0040003C00000044007C08F
:101DF0000440040003C0004000000380044004408D
:101E000003800000041007F0045004400380000029
:101E1000000003800440045007F00010044007C095
:101E20000240040004000000000006400540054098
:101E300004C00000000004001F80044000400000B7
:101E4000040007800040044007C000400400070071
:101E500004C0018006000400060001C0070001C0A4
:101E600006000000044006C0010006C00440000057
:101E70000410071004E00180060004000000044084
:101E800005C00640044000000000000004007BE0A4
:101E900040200000000000000000FFF000000000F3
:101EA000000040207BE004000000000040008000B3
:101EB0004000200020004000000000000000000062
:101EC00000000000000000000000000000001FCC27
:101ED000000C00000000000000000800300060005E
:101EE0000800300060000000022003FC1E200220D9
:101EF00003FC1E200220000000000E1811043FFF0A
:101F000010840C78000000000F0010840F3800C00F
:101F1000077818840078000000780F8410C411241A
:101F20000E9800E4008400080800680070000000BB
:101F3000000000000000000000000000000007E0BA
:101F40001818200440020000000040022004181865
:101F500007E00000000000000240024001800FF096
:101F600001800240024000000080008000800FF8E5
:101F700000800080008000000001000D000E0000C5
:101F800000000000000000000000008000800080D1
:101F900000800080008000800000000C000C000029
:101FA00000000000000000000000000600180060B3
:101FB0000180060018002000000007F00808100447
:101FC0001004080807F000000000080408041FFCC3
:101FD000000400040000000000000E0C1014102487
:101FE000104411840E0C000000000C1810041104A1
:101FF000110412880C700000000000E0032004248B
:1020000008241FFC0024000000001F981084110405
:102010001104108810700000000007F008881104F7
:10202000110418880070000000001C00100010FC53
:1020300013001C001000000000000E381144108432
:10204000108411440E38000000000700088C104472
:102050001044088807F00000000000000000030C96
:10206000030C000000000000000000000001010659
:10207000000000000000000000000080014002207D
:102080000410080810040000022002200220022090
:1020900002200220022000000000100408080410A2
:1020A000022001400080000000000E001200100C11
:1020B000106C10800F00000003E00C1813E41424CF
:1020C00017C4082807D000000004003C03C41C40CB
:1020D000074000E4001C000410041FFC110411045C
:1020E00011040E880070000003E00C1810041004A6
:1020F000100410081C10000010041FFC1004100431
:102100001004080807F0000010041FFC110411045B
:1021100017C410040818000010041FFC110411005B
:1021200017C010000800000003E00C181004100491
:1021300010441C780040000010041FFC1084008034
:10214000008010841FFC10040000100410041FFC09
:102150001004100400000000000300011001100131
:102160001FFE10001000000010041FFC110403806B
:102170001464181C1004000010041FFC1004000458
:1021800000040004000C000010041FFC1F0000FCF1
:102190001F001FFC1004000010041FFC0C040300AF
:1021A00000E010181FFC100007F0080810041004CD
:1021B0001004080807F0000010041FFC10841080B1
:1021C000108010800F00000007F008181024102461
:1021D000101C080A07F2000010041FFC1104110073
:1021E00011C011300E0C000400000E1C11041084EC
:1021F000108410441C3800001800100010041FFC4C
:10220000100410001800000010001FF81004000453
:10221000000410041FF8100010001E0011E0001C44
:10222000007013801C0010001FC0103C00E01F0055
:1022300000E0103C1FC000001004180C163401C050
:1022400001C01634180C100410001C00130400FC0C
:1022500013041C00100000000804101C10641084FB
:1022600013041C04101800000000000000007FFE92
:102270004002400240020000000030000C000380D9
:102280000060001C00030000000040024002400209
:102290007FFE000000000000000000002000400061
:1022A000400040002000000000010001000100018A
:1022B000000100010001000100004000400020007A
:1022C000000000000000000000000098012401440C
:1022D0000144014400FC000410001FFC00880104BC
:1022E00001040088007000000000007000880104F4
:1022F000010401040088000000000070008801044F
:10230000010411081FFC0004000000F8014401440E
:102310000144014400C800000000010401040FFC56
:102320001104110411001800000000D60129012930
:10233000012901C90106000010041FFC00840100EE
:102340000100010400FC000400000104190419FC50
:10235000000400040000000000000003000101016F
:10236000190119FE0000000010041FFC00240040A9
:1023700001B4010C010400000000100410041FFC53
:102380000004000400000000010401FC010401003D
:1023900001FC0104010000FC010401FC00840100B7
:1023A0000100010400FC0004000000F80104010425
:1023B0000104010400F80000010101FF008501048F
:1023C0000104008800700000000000700088010413
:1023D0000104010501FF00010104010401FC008466
:1023E0000104010001800000000000CC0124012450
:1023F000012401240198000000000100010007F8F9
:102400000104010400000000010001F800040004C0
:102410000004010801FC0004010001800170000CAF
:10242000001001600180010001F0010C003001C0CA
:102430000030010C01F0010000000104018C007467
:102440000170018C01040000010101810171000E85
:10245000001801600180010000000184010C0134BA
:1024600001440184010C0000000000000000000095
:1024700001003EFC4002400200000000000000009D
:10248000FFFF0000000000000000400240023EFC90
:1024900001000000000000000000600080008000DB
:1024A000400040002000200000000000000000006C
:1024B000000000000000000000000000000000001C
:1024C000000000000000000000000000000000000C
:1024D00000000000000000000000000F80380FFE28
:1024E000380F8038000000000000000000000000ED
:1024F0000000000000000100000600000C00003891
:1025000000003100000600000C0000380000300020
:10251000000000000000000061800067F807F980FB
:102520000061800061800061800061800067F807C1
:10253000F98000618000000000000000000001C080
:10254000E003E0F00630080418081FFFFE040E0840
:102550000787F00381E000000000000001F00006A2
:102560000C00040408060C7001F9C0000E00003BCA
:10257000E000EC18070808040C180003E000000055
:102580000001E00007F003F818041C08041708070E
:10259000E1D003C0E00023B0003C080020080000A8
:1025A00010000000000000010000310000320000B7
:1025B0001C000000000000000000000000000000FF
:1025C000000000000000000000000000000000000B
:1025D00000000000000000007F0001FFC00780F045
:1025E0000C00181000042000020000000000002071
:1025F00000021000040C00180780F001FFC0007FEB
:1026000000000000000000000000000000000000CA
:10261000000000004200006600006600003C000070
:10262000180003FFC0001800003C000066000066B0
:102630000000420000000000080000080000080040
:1026400000080000080001FFC000080000080000AA
:102650000800000800000800000000000001000061
:102660003100003200001C000000000000000000EB
:10267000000000000000000000000000000000005A
:10268000080000080000080000080000080000081A
:10269000000008000008000008000008000000001A
:1026A0000000000000000000380000380000380082
:1026B000000000000000000000000000000000001A
:1026C0000000000000000000000600001C00007078
:1026D000000180000E0000380000C0000700001C50
:1026E0000000300000000000000000007F8001FFBB
:1026F000E0038070060018040008040008060018B3
:1027000003807001FFE0007F8000000000000000F7
:10271000000001000801000801000803FFF807FF9E
:10272000F800000800000800000800000000000099
:1027300000000001C03802C05804009804011804C9
:102740000218040418061C1803F81801E0F8000029
:102750000000000000000001C0E003C0F004000819
:1027600004080804080806180803F41801E7F00034
:1027700001E0000000000000000000000300000D68
:102780000000110000610000810803010807FFF844
:102790000FFFF80001080001080000000000000021
:1027A00000E007FCD006080806100806100806100E
:1027B00008061838060FF00607C0000000000000E9
:1027C000000000003F8001FFE0038430020818048D
:1027D0001008041008041008071810030FF0000771
:1027E000C000000000000000000003C0000700005F
:1027F0000600000600F80607F806180006E00007C5
:10280000000006000000000000000001E1E003F706
:10281000F0063410041808041808040C08040C0806
:1028200006161803F3F001C1E000000000000000EC
:10283000F80003FC3003063804020804020804020E
:10284000080404100308F001FFC0007F000000002E
:102850000000000000000000000000000000000078
:102860007038007038007038000000000000000070
:102870000000000000000000000000000000000058
:1028800000000000301A00301C00000000000000B2
:102890000000000000000000000000000000000830
:1028A0000000140000220000410000808001004070
:1028B00002002004001008000800000000000000D2
:1028C0002100002100002100002100002100002142
:1028D0000000210000210000210000210000000074
:1028E00000000000000008000804001002002001A1
:1028F0000040008080004100002200001400000819
:102900000000000000000003C00004C0000400003C
:10291000080038080F380808380810000C30000785
:10292000E00003C000000000000000003F8000FF46
:10293000E0038070020F1006708804C088048308CA
:10294000047F8802C09003012000FE4000000800C0
:1029500000180001F8003E0801C20007020007E26B
:102960000000FE00001FC80001F800003800000849
:1029700004000807FFF807FFF80408080408080423
:10298000080804080806180803F41801E7F0000115
:10299000E0000000000000003F8001FFE0038070C5
:1029A00002001804000804000804000804001006CF
:1029B00000200780C000000004000807FFF807FFA0
:1029C000F8040008040008040008040018020010BD
:1029D00003807001FFE0007F800000000400080712
:1029E000FFF807FFF80408080408080408080408AA
:1029F00008043E08040008060018010060000000FA
:102A000004000807FFF807FFF8040808040800049A
:102A10000800040800043E000600000600000180D3
:102A200000000000000000003F8001FFE003807014
:102A30000600180400080402080402080203F00754
:102A400083F000020000020004000807FFF807FFFF
:102A5000F80408080008000008000008000008004A
:102A600004080807FFF807FFF8040008000000004A
:102A7000000004000804000804000807FFF807FF2E
:102A8000F80400080400080400080000000000002A
:102A9000000000000006000007000001040001041F
:102AA000000104000307FFFE07FFFC040000040010
:102AB0000004000004000807FFF807FFF8040C08F2
:102AC000001800003E0004C7800503C80600F80493
:102AD000003804001800000804000807FFF807FF8A
:102AE000F8040008000008000008000008000008C2
:102AF0000000080000180000600000000400080743
:102B0000FFF807800807FC00007FC00003F80007FB
:102B1000C000780007800807FFF807FFF8040008E6
:102B200004000807FFF807000803C00000E00000E9
:102B30003800001E000007000001C00400F007FF7D
:102B4000F8040000000000007F8001FFE0038070B7
:102B500006001804000804000806001803003001ED
:102B6000FFE0007F8000000004000807FFF807FF77
:102B7000F80404080404000404000404000404002D
:102B8000060C0003F80001F0000000000000000047
:102B90007F8001FFE0038070060088040088040045
:102BA000C806003C03003E01FFE6007F84000000F1
:102BB00004000807FFF807FFF804080804080004E9
:102BC0000C00040F00040BC00610F003F03801E005
:102BD0000800000800000001E0F803F030063010A3
:102BE000041808041808040C08040C08020618024B
:102BF00007F00781E00000000180000600000400EB
:102C00000004000004000807FFF807FFF8040008AC
:102C1000040000040000060000018000040000071A
:102C2000FFE007FFF00400180000080000080000A3
:102C30000800000800000804001007FFE00400007E
:102C400004000006000007E00007FE00041FE0008B
:102C500001F80000380001E0043E0007C000060053
:102C60000004000004000007E00007FFC0041FF894
:102C70000007C007F80007FF80043FF80007C00402
:102C8000F80007000004000000000004000806002F
:102C90001807C07805F1C8003E00001F800463E8F3
:102CA0000780F80600180400080000000400000671
:102CB000000007800007E008047C08001FF80007F8
:102CC000F800180804E008070000060000040000EF
:102CD0000000000100080600380400F80403E804BE
:102CE0000F08047C0805F00807C008070018040056
:102CF0006000000000000000000000000000000074
:102D00000000003FFFFE2000022000022000022001
:102D10000002200002000000000000000000080087
:102D20000007000000C0000038000006000001C0DD
:102D300000003000000E0000010000000000000054
:102D400000002000022000022000022000022000DB
:102D5000023FFFFE00000000000000000000000035
:102D6000000000000000000000080000100000301B
:102D700000002000003000001000000800000000EB
:102D8000000000000000010000010000010000013F
:102D9000000001000001000001000001000001002E
:102DA0000001000001000001000000000000000020
:102DB00000200000200000100000100000000000B3
:102DC0000000000000000000000000000000000003
:102DD00000F00019F8001B18002208002608002443
:102DE00008002410003FF8001FF800000800001839
:102DF00000000004000007FFF80FFFF000181800A3
:102E00001008002008002008003018001FF0000FF4
:102E1000C00000000000000007C0001FF0001830D4
:102E2000002008002008002008003C08001C1000BA
:102E300000600000000000000000000007C0001F4C
:102E4000F0003818002008002008002008041010A6
:102E500007FFF80FFFF00000100000000000000066
:102E600000000007C0001FF00012300022180022EE
:102E700008002208003208001E10000E200000008A
:102E800000000000200000200800200801FFF803D7
:102E9000FFF806200804200804200807200003008B
:102EA0000000000000000000000E000E6E001FF386
:102EB0000031B10020B10020B1003191001F13009A
:102EC0002E1E00200E00300000000004000807FF46
:102ED000F80FFFF800100800200000200000200874
:102EE000003FF8001FF8000008000000000000008C
:102EF0000000002008002008002008063FF8063FD8
:102F0000F8000008000008000008000000000000B1
:102F1000000000000000000003000003002001008A
:102F20002001002003063FFE063FFC0000000000D9
:102F30000000000000000004000807FFF80FFFF881
:102F4000000188000300002FC00038F8002038007E
:102F5000200800000800000000000000000004003D
:102F60000804000804000807FFF80FFFF800000835
:102F70000000080000080000000000000020080019
:102F80003FF8003FF8001008002000003FF8003F25
:102F9000F8001008002000003FF8003FF80000088B
:102FA000000000002008003FF8003FF80010080073
:102FB0001000002000002008003FF8001FF800006B
:102FC000080000000000000007C0000FF0001830EB
:102FD00000300800200800200800300800183000E9
:102FE0000FF00007C0000000000000002001003FBB
:102FF000FF003FFF001011002009002008002008FA
:10300000003038001FF0000FC0000000000000007A
:1030100007C0001FF000381800200800200800201A
:1030200009001011001FFF003FFF00000100000019
:10303000002008002008002008003FF8003FF800AA
:1030400008080010080020080020000030000030B0
:1030500000000000000000000000000C78001E18B6
:10306000003308002308002108002188002198006F
:1030700030F0003860000000000000002000002058
:103080000000200000FFF003FFF8002008002008E7
:1030900000200800003000000000000000000000D8
:1030A0002000003FF0007FF800001800000800003A
:1030B00008002010003FF8007FF000001000000022
:1030C000000000002000003000003C00003F8000B5
:1030D00023F0000078000070002380003C000030E6
:1030E00000002000002000003C00003FE00023F82A
:1030F0000000E0002700003E00003FE00021F80053
:1031000001E0003E00002000000000002008002038
:1031100008003838003E680027800003C8002CF8FB
:1031200000383800201800200800000000000000CF
:103130002000003003003C01003F830023EC00002E
:1031400070002380003C00002000002000000000F0
:103150000000000000000038080020380020F800BF
:1031600023E8002F88003E080038080020180000DF
:1031700070000000000000000000000000000000DF
:103180000000000008000014001FF7FC30000620BB
:10319000000200000000000000000000000000002D
:1031A00000000000000000000000FFFFFF00000022
:1031B000000000000000000000000000000000000F
:1031C00000002000023000061FF7FC001400000879
:1031D00000000000000000000000000000000000EF
:1031E00000000018000060000040000040000020C7
:1031F00000001000000800000400000400000C00A3
:1032000000100000243200080000002034000000FC
:103210008C0E0008583200083400002024080000FA
:103220009C0E0008000000001000000001000000DB
:1032300000127A00010002000400080010002000C3
:103240004000800000000000AD0E0008751000086E
:083250003D0F0008F90F000812
:04000005080000ED02
:00000001FF
