:020000040800F2
:10000000980A002001010008B9110008FB0F000840
:10001000B5110008AD0100087514000800000000CB
:10002000000000000000000000000000E9110008CE
:100030005902000800000000BD110008EB11000883
:100040001B0100081B0100081B0100081B01000820
:100050001B0100081B0100081B0100081B01000810
:100060001B0100081B0100081B0100081B01000800
:100070001B0100081B0100081B0100081B010008F0
:100080001B0100081B0100081B0100081B010008E0
:100090001B0100081B0100081B0100081B010008D0
:1000A0001B0100081B0100081B0100081B010008C0
:1000B0001B0100081B0100081B0100081B010008B0
:1000C0001B0100081B0100081B0100081B010008A0
:1000D0001B010008511400081B0100081B01000847
:1000E0001B0100081B0100081B010008DFF80CD0F1
:1000F00000F04AF800480047CF140008980A002092
:100100000648804706480047FEE7FEE7FEE7FEE7B1
:10011000FEE7FEE7FEE7FEE7FEE7FEE7591200080E
:10012000ED00000840EA01039B0703D009E008C97D
:10013000121F08C0042AFAD203E011F8013B00F8AC
:10014000013B521EF9D27047D2B201E000F8012BF8
:10015000491EFBD270470022F6E710B513460A4647
:1001600004461946FFF7F0FF204610BD10B50022E7
:1001700000E0521C835C8C5CA34201D1002BF8D1BF
:10018000D8B2E1B2401A10BD064C074D06E0E06857
:1001900040F0010394E8070098471034AC42F6D3CE
:1001A000FFF7A8FF503600087036000800BFFEE7D2
:1001B00000B585B000208DF8060025480090142079
:1001C0000290244803900A2004900220ADF8040015
:1001D0000121684601F0D0FA00208DF806001C4885
:1001E0000090142002901B4803900A2004904FF4C2
:1001F0000060ADF804000021684601F0BDFA01205E
:100200008DF80600124800901420029011480390C7
:100210000A2004904FF48050ADF804000221684693
:1002200001F0AAFA01208DF8060009480090142078
:100230000290084803900A2004904FF40050ADF853
:1002400004000321684601F097FA05B000BD0000E4
:10025000000C0140A0860100704772B600BFFEE7A7
:100260002DE9F8470346002294466EE14FF001085D
:1002700008FA02F4D1F8008008EA0400A0427DD117
:10028000DFF8DCA2D1F80480A8EB0A09D0453AD007
:1002900014DCB8F1030F50D009DCB8F1000F31D0F5
:1002A000B8F1010F1CD0B8F1020F49D120E0B8F12C
:1002B000110F18D0B8F1120F42D11EE0B9F5881F06
:1002C00025D006DCB9F5803F20D0B9F5801F37D1A5
:1002D0001AE0B9F5001F18D0B9F5041F30D117E0A6
:1002E000D1F80CC02DE0D1F80C8008F1040C28E006
:1002F000D1F80C8008F1080C23E0D1F80C8008F14B
:100300000C0C1EE000BF00BF00BF00BF00BF00BF5D
:10031000D1F80880B8F1000F02D14FF0040C0BE0C7
:10032000D1F80880B8F1010F03D14FF0080C1C611F
:1003300002E04FF0080C5C6103E04FF0000C00E0BD
:1003400000BF00BFFF2801D8984601E003F1040870
:100350004646FF2802D84FEA820803E0A2F10808C7
:100360004FEA88084746D6F800804FF00F0909FA8F
:1003700007F928EA09080CFA07F900E088E048EADA
:100380000908C6F80080D1F8048008F08058B8F158
:10039000805F7DD100BFDFF8CC81D8F8188048F0AD
:1003A0000108DFF8C091C9F81880C846D8F818804D
:1003B00008F00108CDF8008000BF00BF4FEAB9384F
:1003C0004FEA920958F829504FEA82784FEA187993
:1003D0004FF00F0808FA09F825EA0805DFF88881C8
:1003E000434502D14FF0000816E0DFF88081434515
:1003F00002D14FF001080FE0DFF87481434502D1CC
:100400004FF0020808E0DFF86C81434502D14FF05D
:10041000030801E04FF004084FEA82794FEA1979A6
:1004200008FA09F848EA0505DFF84C814FEA920915
:1004300048F82950D1F8048008F48018B8F5801FD6
:100440000AD1DFF83881D8F8008048EA0008DFF8E0
:100450002C91C9F8008009E0DFF82081D8F80080ED
:1004600028EA0008DFF81491C9F80080D1F8048068
:1004700008F40018B8F5001F10D1DFF8008108F16A
:100480000408D8F8008048EA0008DFF8F09000E09F
:100490005AE009F10409C9F800800DE0DFF8DC80BA
:1004A00008F10408D8F8008028EA0008DFF8CC90AA
:1004B00009F10409C9F80080D1F8048008F4003873
:1004C000B8F5003F0ED1DFF8B480A8F10408D8F8E1
:1004D000008048EA0008DFF8A490A9F10409C9F8EF
:1004E00000800DE0DFF89480A8F10408D8F80080BF
:1004F00028EA0008DFF88490A9F10409C9F800800F
:10050000D1F8048008F48038B8F5803F0ED1DFF8C8
:100510006C80A8F10808D8F8008048EA0008DFF8E5
:100520005C90A9F10809C9F800800DE0DFF84C8063
:10053000A8F10808D8F8008028EA0008DFF83C9005
:10054000A9F10809C9F80080521CD1F8008028FAE6
:1005500002F8B8F1000F7FF489AEBDE8F88700001B
:10056000000011100010024000080140000C014082
:10057000001001400014014008000140080401403F
:10058000024693680B400BB1012000E00020704749
:100590000AB1016101E00B04036170470148006882
:1005A00070470000000000200348006803490978F4
:1005B000084401490860704700000020080000203E
:1005C00010B50848006840F0100006490860032094
:1005D00000F0A8F80F2000F007F800F02BF800203A
:1005E00010BD00000020024070B504460E4800789F
:1005F0004FF47A71B1FBF0F00C490968B1FBF0F5EA
:10060000284600F0F9FB08B1012070BD102C07D27C
:1006100000222146501E00F047F80548046001E022
:100620000120F2E70020F0E7080000200C00002085
:100630000400002008B500BF1148806940F00100A7
:100640000F4988610846806900F00100009000BFF2
:1006500000BF00BF0846C06940F08050C86108462E
:10066000C06900F08050009000BF00BF00BF054986
:10067000486820F0E06040F00070486000BF08BDAE
:10068000001002400000014001460846002809DB36
:1006900000F01F0301229A4043099B0003F1E0236D
:1006A000C3F8002100BF70472DE9F05F80460D467A
:1006B0001646002700F0E0FE074639462A46334634
:1006C00001F00700C0F1070ABAF1040F02D94FF098
:1006D000040A01E0C0F1070AD14600F1040ABAF1A8
:1006E000070F02D24FF0000A01E0A0F1030AD4463E
:1006F0004FF0010A0AFA09FAAAF1010A0AEA020A03
:100700000AFA0CFA4FF0010B0BFA0CFBABF1010BE0
:100710000BEA030B4AEA0B042146404600F0B4FE04
:10072000BDE8F09F00BF00F00702064B19684FF6C6
:10073000FF031940044B0B4343EA0221014B1960AC
:1007400000BF70470CED00E00000FA0570B50446EC
:100750000D460CB9012070BD5A48006800F0070032
:10076000A8420ED25748006820F007002843554998
:1007700008600846006800F00700A84201D0012088
:10078000E9E7207800F0020002281DD1207800F06F
:100790000400042805D14C48406840F4E0604A4910
:1007A0004860207800F00800082805D146484068D5
:1007B00040F46050444948604348406820F0F000ED
:1007C000A168084340494860207800F0010078B3F0
:1007D0006068012806D13C48006800F4003090B9F8
:1007E0000120B8E76068022806D13748006800F0A9
:1007F000007040B90120AEE73348006800F0020005
:1008000008B90120A7E73048406820F0030061687C
:1008100008432D494860FFF7C1FE064609E0FFF78F
:10082000BDFE801B41F28831884202D9032092E745
:1008300007E02548406800F00C006168B0EB810FCC
:10084000EDD12048006800F00700A8420ED91D48ED
:10085000006820F0070028431A490860084600682D
:1008600000F00700A84201D0012074E7207800F0D2
:100870000400042807D11448406820F4E060E168CF
:10088000084311494860207800F00800082808D182
:100890000D48406820F46050216940EAC1000A49CF
:1008A000486000F03FF808494968C1F30311074A5E
:1008B000515CC8400649086006480068FFF794FE8E
:1008C000002048E70020024000100240461E0008B9
:1008D0000C00002004000020014800687047000060
:1008E0000C00002000B5FFF7F7FF04494968C1F389
:1008F0000221034A515CC84000BD000000100240C4
:10090000561E000800B5FFF7E7FF04494968C1F328
:10091000C221034A515CC84000BD000000100240E3
:10092000561E000870B5002100220024002300207C
:10093000134D696801F00C05F5B1042D02D0082DA6
:1009400019D101E00F4819E00F4DC1F38346AB5DAB
:1009500001F4803555B10A4D6D68C5F340450B4E25
:10096000725D084D5D43B5FBF2F402E0084D03FBF8
:1009700005F4204602E000BF024800BF00BF70BD82
:100980000010024000127A00341E0008441E0008C5
:1009900000093D00F8B504460CB90120F8BD2078E7
:1009A00000F00100002878D0F848406800F00C0002
:1009B00004280CD0F548406800F00C00082811D13C
:1009C000F248406800F48030B0F5803F0AD1EF482B
:1009D000006800F4003000285FD0606800285CD117
:1009E0000120DBE700BF6068B0F5803F06D1E74833
:1009F000006840F48030E549086028E0606858B934
:100A0000E248006820F48030E04908600846006849
:100A100020F4802008601AE06068B0F5A02F0BD1A8
:100A2000DA48006840F48020D84908600846006829
:100A300040F4803008600AE0D448006820F4803038
:100A4000D24908600846006820F48020086000BF92
:100A5000606888B1FFF7A2FD054606E0FFF79EFD3E
:100A6000401B642801D9032098E7C848006800F4B7
:100A700000300028F2D010E0FFF790FD054606E0B8
:100A8000FFF78CFD401B642801D9032086E7BF488F
:100A9000006800F400300028F2D1207800F0020055
:100AA000022857D1B948406800F00C0050B1B7484F
:100AB000406800F00C00082818D1B448406800F4E1
:100AC000803098B9B148006800F0020020B1206978
:100AD000012801D0012061E7AC48006820F0F8004F
:100AE000616940EAC100A949086033E02069E8B1C2
:100AF0000120A7490860FFF751FD054606E0FFF712
:100B00004DFD401B022801D9032047E79F4800689C
:100B100000F002000028F2D09C48006820F0F800A5
:100B2000616940EAC1009949086013E000209849D2
:100B30000860FFF733FD054606E0FFF72FFD401B79
:100B4000022801D9032029E79048006800F002003C
:100B50000028F2D1207800F0080008282DD1A069E3
:100B6000B8B101208B490860FFF718FD054606E083
:100B7000FFF714FD401B022801D903200EE783482C
:100B8000406A00F002000028F2D0012000F018FBBB
:100B900013E000207F490860FFF700FD054606E0EE
:100BA000FFF7FCFC401B022801D90320F6E677483A
:100BB000406A00F002000028F2D1207800F0040022
:100BC000042873D100277148C06900F0805070B9C3
:100BD00000BF6E48C06940F080506C49C86108464B
:100BE000C06900F08050009000BF00BF01276A4834
:100BF000006800F48070B0B96748006840F4807005
:100C000065490860FFF7CAFC054606E0FFF7C6FC29
:100C1000401B642801D90320C0E65F48006800F447
:100C200080700028F2D000BFE068012806D1574844
:100C3000006A40F001005549086227E0E06858B9B1
:100C40005248006A20F00100504908620846006AD4
:100C500020F00400086219E0E06805280BD14B4839
:100C6000006A40F00400494908620846006A40F002
:100C7000010008620AE04548006A20F0010043498B
:100C800008620846006A20F00400086200BFE068BD
:100C9000A0B1FFF783FC054609E0FFF77FFC401B8E
:100CA00041F28831884202D9032077E622E03748B2
:100CB000006A00F002000028EFD012E0FFF76EFC9F
:100CC000054608E0FFF76AFC401B41F28831884284
:100CD00001D9032062E62D48006A00F002000028D6
:100CE000F0D1012F05D12948C06920F08050274953
:100CF000C86100BFE069C8B32448406800F00C0038
:100D0000082860D0E069022848D100202049086600
:100D1000FFF744FC054606E0FFF740FC401B0228B5
:100D200001D903203AE61948006800F00070002855
:100D3000F2D1206AB0F5803F07D11448406820F412
:100D40000030A168084311494860D4E9080108430C
:100D50000E49496821F4741108430C494860012088
:100D60000B490866FFF71AFC054607E03DE0FFF770
:100D700015FC401B022801D903200FE60348006838
:100D800000F000700028F2D02FE0000000100240B8
:100D9000000042428004424200700040002014499A
:100DA0000866FFF7FBFB054606E0FFF7F7FB401B75
:100DB000022801D90320F1E50E48006800F0007018
:100DC0000028F2D111E0E069012800D1E6E50948E8
:100DD000466806F48031206A814204D106F470111D
:100DE000606A814201D00120D8E50020D6E50000EC
:100DF000000042420010024070B504462546681EBD
:100E0000B0F1807F01D301200FE0681E4FF0E02198
:100E100048610F214FF0FF3000F036FB00204FF00B
:100E2000E021886107200861002070BD10B50446EC
:100E30000CB9012010BDA06900B100E000BF94F81A
:100E4000410028B9002084F84000204600F02AF82C
:100E5000242084F841002068C06820F400502168F4
:100E6000C860204600F030FA2068006920F4904005
:100E7000216808612068406920F02A0021684861E3
:100E80002068C06840F400502168C8600020606499
:100E9000202084F8410084F842000020606300BFF5
:100EA000C8E7000010B586B0044600200290039009
:100EB000049005901E492068884236D100BF1D4825
:100EC000806940F480401B4988610846806900F4CD
:100ED0008040019000BF00BF00BF0846806940F01D
:100EE000040088610846806900F00400019000BF9A
:100EF00000BF48150290022003900320059002A92C
:100F00000D48FFF7ADF94FF4806002900020039088
:100F1000049002A90848FFF7A3F9002211462520F2
:100F2000FFF7C2FB2520FFF7AFFB06B010BD0000A6
:100F30000038014000100240000801402DE9F84F40
:100F400004460E46174699464FF0000A94F84100B1
:100F5000202850D106B117B90120BDE8F88F002034
:100F60006064212084F84100FFF718FB8246A784C3
:100F7000E784A068B0F5805F04D1206910B900252E
:100F8000B04602E035464FF000081EE0534600220E
:100F900080212046CDF8009000F014FA20B12020E6
:100FA00084F841000320D8E745B9B8F80000C0F341
:100FB00008002168486008F1020803E028782168E9
:100FC00048606D1CE08C401EE084E08C0028DDD180
:100FD0005346002240212046CDF8009000F0F2F95F
:100FE00020B1202084F841000320B6E7202084F8B7
:100FF00041000020B1E70220AFE700BFFEE700009C
:101000001CB500208DF80600044800904014ADF88F
:1010100004000021684600F01DFC1CBD00100140CA
:1010200000B585B00020019002900390049000BFAD
:101030004648806940F0100044498861084680694C
:1010400000F01000009000BF00BF00BF084680699C
:1010500040F0200088610846806900F02000009080
:1010600000BF00BF00BF0846806940F004008861EF
:101070000846806900F00400009000BF00BF00BF78
:101080000846806940F0080088610846806900F0E1
:101090000800009000BF00BF00224FF400512C4810
:1010A000FFF776FA01220F212A48FFF771FA002292
:1010B0004FF440712848FFF76BFA4FF4005001904D
:1010C00001200290002003900220049001A92048F2
:1010D000FFF7C6F80F200190012002900020039036
:1010E0000220049001A91B48FFF7BAF8F0200190F4
:1010F000002002900120039001A91648FFF7B0F8E4
:1011000040F602000190002002900120039001A906
:101110001148FFF7A5F84FF44050019000200290CD
:101120000220039001A90C48FFF79AF84FF4407091
:10113000019011200290002003900220049001A948
:101140000548FFF78DF805B000BD00000010024013
:101150000010014000080140000C014010B5134888
:10116000134908604FF4E130486000211048816065
:10117000C16001610C21416100218161C161FFF702
:1011800055FE08B1FFF769F809480068C06840F0EB
:10119000200007490968C86005480068C06840F435
:1011A000005003490968C86010BD000000380140C4
:1011B000EC00002000BFFEE700BFFEE77047000024
:1011C00008B508490968C9084FF47A72B1FBF2F111
:1011D0004143009100BF00BF00994A1E00920029C0
:1011E000F9D108BD0C000020704710B5FFF7DCF9FD
:1011F00010BD00B58FB0282105A8FEF7ACFF142163
:101200006846FEF7A8FF0120059000040690002024
:1012100007900120099002200C90C1030D914FF41A
:10122000E0110E9105A8FFF7B5FB08B1FFF715F81F
:101230000F20009002200190002002904FF4806067
:1012400003900020049002216846FFF77FFA08B15E
:10125000FFF703F80FB000BD704700BF00BF026882
:101260000C3252E8002F22F4907102680C3242E8EE
:101270000013002BF3D100BF00BF00BF026814327F
:1012800052E8002F22F001010268143242E80013F4
:10129000002BF3D100BF016B01290ED100BF00BFAD
:1012A00002680C3252E8002F22F0100102680C3262
:1012B00042E80013002BF3D100BF202180F8421038
:1012C000002101637047000070B504462168096978
:1012D00021F44051E2681143226811612269A1683A
:1012E0001143626941EA02052168C96841F20C6252
:1012F000914329432268D1602168496921F44071F2
:10130000A2691143226851612D4A2168914202D19C
:10131000FFF7F8FA01E0FFF7E5FA00EBC00101EB97
:10132000001162689200B1FBF2F100EBC00202EB27
:10133000001263689B00B2FBF3F26423B2FBF3F28A
:1013400002EBC20303EB0212A1EB8201322202EB99
:1013500001116422B1FBF2F101F0F00100EBC002D7
:1013600002EB001263689B00B2FBF3F26423B2FB52
:10137000F3F201EB021200EBC00101EB0011636814
:101380009B00B1FBF3F100EBC00303EB00136668B5
:10139000B600B3FBF6F36426B3FBF6F303EBC30628
:1013A00006EB0313A1EB8301322303EB011164234A
:1013B000B1FBF3F101F00F0111442268916070BD9F
:1013C000003801402DE9F84304460D46174698467B
:1013D000089E31E0701C70B3FFF7E0F8A0EB080046
:1013E000B04200D816B90320BDE8F8832068C06871
:1013F00000F00400F8B1802D1ED0402D1CD02068D4
:101400000068C0F3C000B0B100BF002000902068A9
:101410000068009020684068009000BF00BF204630
:10142000FFF71BFF0820606400BF002084F8400025
:1014300000BF0120D8E7FFE7206800682840A842E5
:1014400001D1012000E00020B842C3D00020CBE74A
:1014500010B50748006800F0200038B10448001DAE
:101460000068C4B2204600F061F900BF10BD000062
:101470000038014000BFFEE702480068C0F30220C8
:10148000704700000CED00E010B5002804DB0A07EF
:10149000130E054A135406E00A07140E034A00F01F
:1014A0000F031B1FD45410BD00E400E018ED00E052
:1014B00002E008C8121F08C1002AFAD1704770471D
:1014C000002001E001C1121F002AFBD17047FFF785
:1014D00077F8FFF78EFEFFF7A3FDFFF73FFEFFF75C
:1014E0008FFD00F0CBFA00F037FA00F0ABF9FEF711
:1014F0005FFE01E000F050FCFCE7000070B5044620
:101500000D4605EB8501044A02EBC1001422214679
:10151000FEF708FE70BD00007405002010B501EB59
:101520004102034B03EB8202D0E9003418C210BD24
:101530004405002070B506460D46072416E02846EF
:1015400000F03CF846FA04F000F0010018B9284613
:1015500000F058F802E0284600F066F8284600F04F
:101560003FF8284600F02AF8601E44B2002CE6DA64
:1015700070BD10B50446204600F056F8204600F035
:101580002FF8204600F03EF8204600F017F810BD76
:1015900010B50446204600F023F8204600F032F84B
:1015A000204600F041F810BD10B50446204600F07A
:1015B00017F8204600F002F810BD000000EB801183
:1015C000064A02EB01118988090400EB8012034BE3
:1015D00003EB02121268116100BF70473401002052
:1015E00000EB8011064A02EB0111898800EB8012A2
:1015F000034B03EB02121268116100BF7047000039
:101600003401002000EB8011064A02EB01118989A8
:10161000090400EB8012034B03EB02129268116184
:1016200000BF70473401002000EB8011064A02EB36
:101630000111898900EB8012034B03EB02129268BF
:10164000116100BF70470000340100202DE9F04116
:1016500006460F4614462046FFF78BFF21467820AA
:10166000FFF768FF2046FFF79FFF21464020FFF766
:1016700061FF2046FFF798FF002508E0705D2146D6
:10168000FFF758FF2046FFF78FFF681CC5B2BD4229
:10169000F4D32046FFF77CFFBDE8F08170B5054626
:1016A0000C462046FFF765FF21467820FFF742FFF2
:1016B0002046FFF779FF21460020FFF73BFF204639
:1016C000FFF772FF21462846FFF734FF2046FFF759
:1016D0006BFF2046FFF75CFF70BD0000014612481B
:1016E00090F8340008B9012070470F4890F8322074
:1016F00090F83200401C0C4B83F832001846805C96
:101700000870184690F83200322803DB00201A4691
:1017100082F83200044890F83400401E024A82F8F1
:1017200034000020E0E700001406002001461148C4
:1017300090F83400322801DB012070470D4890F802
:10174000332090F83300401C0A4B83F833001846CE
:10175000815490F83300322803DB00201A4682F8C7
:101760003300044890F83400401C024A82F83400E8
:101770000020E2E71406002070B505460C4621461D
:101780002846FFF7BBFEA87930B9A9882868FEF77C
:10179000F7FE08B901260BE0A879012807D1A9882E
:1017A0002868FEF7EDFE012801D1012600E00026A1
:1017B000002104EB8400174A02EBC000817504EBA2
:1017C0008400114601EBC000067504EB840001EBB8
:1017D000C0004675002104EB840002EBC00081616B
:1017E00004EB840002EBC000C16104EB840002EB57
:1017F000C000016204EB8400114601EBC00080F8D8
:101800002460002104EB840002EBC00080F8251066
:1018100070BD0000740500201CB5044604B91CBD51
:101820000020206060602072E0602074009010232F
:1018300030220146019000F059F9002000F030F903
:1018400000BFECE710B50248FFF7E6FF10BD00004F
:101850004C06002070B504460E4631462046FFF780
:101860005DFEA07930B9A1882068FEF789FE08B92D
:1018700001250BE0A079012807D1A1882068FEF797
:101880007FFE012801D1012500E0002506EB46007E
:10189000024901EB8000057270BD00004405002084
:1018A00010B50446002004EB4401044A02EB810118
:1018B0000872204600F028F810BD00004405002002
:1018C00010B50446012004EB4401044A02EB8101F7
:1018D0000872204600F018F810BD000044050020F2
:1018E00010B5044604EB4400064901EB8000007A81
:1018F000012803D12046FFF7D3FF02E02046FFF77F
:10190000DFFF10BD440500202DE9F041054605EB41
:101910004500104901EB800090F8088005EB450078
:1019200001EB8000867905EB450001EB8007B8F1FB
:10193000010F04D10EB9002405E0012403E00EB923
:10194000012400E00024B98822463868FEF720FE12
:10195000BDE8F081440500200120034948730020C0
:1019600002490870704700006C000020140000203D
:1019700010B504462146AE20FFF790FE2146002018
:10198000FFF78CFE21461020FFF788FE21464020FD
:10199000FFF784FE21468120FFF780FE2146CF20FD
:1019A000FFF77CFE2146A120FFF778FE2146C820E4
:1019B000FFF774FE2146A620FFF770FE2146A820FF
:1019C000FFF76CFE21463F20FFF768FE2146D3203B
:1019D000FFF764FE21460020FFF760FE2146D52078
:1019E000FFF75CFE21468020FFF758FE2146D920F4
:1019F000FFF754FE2146F120FFF750FE2146DA2082
:101A0000FFF74CFE21461220FFF748FE2146DB205F
:101A1000FFF744FE21464020FFF740FE21462020EC
:101A2000FFF73CFE21460220FFF738FE21468D20BD
:101A3000FFF734FE21461420FFF730FE2146A42094
:101A4000FFF72CFE2146A620FFF728FE2146AF20F7
:101A5000FFF724FE10BD000070B505460C4604EBF0
:101A60008410054901EB001095E84E004EC0204659
:101A7000FFF77EFF70BD0000340100201FB507484E
:101A8000009002908015ADF804004000ADF80C0005
:101A900000216846FFF7E0FF1FBD0000000C014079
:101AA00070B5054600241BE004F1B001C8B2294618
:101AB000FFF7F4FD29460020FFF7F0FD294610202E
:101AC000FFF7ECFD05EB8511074A02EB0111103120
:101AD00001EBC4102A468021FFF7B8FD601CC4B298
:101AE000082CE1DB70BD0000340100202DE9FF4F20
:101AF00083B0119C03F007060EB1012600E000261A
:101B000006EBE3064FEA630A06FB0AFC059EA6F114
:101B100020098FB20C2B01D1794D0AE0102B01D195
:101B2000784D06E0182B01D1774D02E007B0BDE8F3
:101B3000F08F0022DEE009FB0C26AE5D02964FF02E
:101B40000008D0E0029E06F0800686B3109E7EBBA1
:101B5000C1F3CF0601F0070ACDF804A04FF0010B46
:101B6000DDF804A00BFA0AFB1FFA8BFACDF800A0EF
:101B700004EB841ADFF894B10BEB0A1A0AF1100A8D
:101B800000EBC61B1AF80BA0DDF800B04AEA0B0AFE
:101B90000AF0FF0B04EB841ADFF870E10EEB0A1A6F
:101BA0000AF1100A00EBC61E0AF80EB08CE02DE018
:101BB000FFE7C1F3CF0601F0070ACDF804A04FF00C
:101BC000010BDDF804A00BFA0AFB1FFA8BFACDF823
:101BD00000A004EB841ADFF834B10BEB0A1A0AF107
:101BE000100A00EBC61B1AF80BA0DDF800B02AEAB9
:101BF0000B0A04EB841BDFF814E10EEB0B1B0BF15B
:101C0000100B00EBC61E0BF80EA05DE0109E66BB2D
:101C1000C1F3CF0601F0070ACDF804A04FF0010B85
:101C2000DDF804A00BFA0AFB1FFA8BFACDF800A02E
:101C300004EB841ADFF8D4B00BEB0A1A0AF1100A8D
:101C400000EBC61B1AF80BA0DDF800B02AEA0B0A5D
:101C500004EB841BDFF8B4E00EEB0B1B0BF1100B55
:101C600000EBC61E0BF80EA02EE0C1F3CF0601F06C
:101C7000070ACDF804A04FF0010BDDF804A00BFA21
:101C80000AFB1FFA8BFACDF800A004EB841ADFF8E8
:101C90007CB00BEB0A1A0AF1100A00EBC61B1AF80B
:101CA0000BA0DDF800B04AEA0B0A0AF0FF0B04EBC8
:101CB000841ADFF858E00EEB0A1A0AF1100A00EB5A
:101CC000C61E0AF80EB000BF029E7606360E0296B9
:101CD000491CCE1B9E4202D13946401C07E008F148
:101CE00001061FFA86F8B8F1080FFFF62BAF00BF08
:101CF000561CB2B26245FFF41EAF00BF16E70000EB
:101D00005E1E0008D2220008C2280008340100200C
:101D100010B51A48007800B910BD19491948FEF7E6
:101D200025FA48B90020FFF7CBFD64230D221649A0
:101D30001648FFF703F91CE015491248FEF716FA9A
:101D400048B90020FFF7ACFD64230D220E490F486F
:101D5000FFF7F4F80DE00F490A48FEF707FA40B91B
:101D60000020FFF7BDFD64230D2207490748FFF758
:101D7000E5F800200149087000BFCDE71100002000
:101D80001E360008600600203F360008EC000020E8
:101D9000283600083336000810B500F00BF8044868
:101DA000007820B1FFF7B4FF00200149087010BD92
:101DB0001100002008B52FE09DF800000A2819D175
:101DC00019480078312809DA9DF800101648027881
:101DD0000078401C144B187014488154002113489B
:101DE000114A1278815401201149087000200E49CF
:101DF000087016E00C48007831280ADA9DF80010C7
:101E0000094802780078401C074B18700748815435
:101E100002E00020044908706846FFF75FFC0028D4
:101E2000CAD000BF08BD00001000002060060020DE
:101E30001100002002030405060708090A0B0C0D17
:101E40000E0F10100102000000000000000001024F
:101E50000304060708090000000001020304000053
:101E600000000000000000000000000000003F40F3
:101E70000000000000000000300040003000400082
:101E8000000009000BC03D000BC03D00090018C058
:101E900024407FE0224031800000180024C01B0055
:101EA0000D803240018003801C4027401C80074089
:101EB0000040100060000000000000000000000072
:101EC000000000001F8020404020000040202040F3
:101ED0001F8000000000090006001F8006000900A6
:101EE0000000040004003F80040004000000001013
:101EF0000060000000000000000004000400040076
:101F00000400040000000000004000000000000089
:101F10000000002001C006003800400000001F80C3
:101F20002040204020401F800000000010403FC0A3
:101F300000400000000018C021402240244018400A
:101F4000000010802040244024401B80000002003C
:101F50000D0011003FC0014000003C80244024409F
:101F60002440238000001F8024402440344003800C
:101F700000003000200027C03800200000001B8037
:101F80002440244024401B8000001C0022C022402A
:101F900022401F80000000000000084000000000F8
:101FA00000000000000004600000000000000000CD
:101FB00004000A00110020804040090009000900C7
:101FC00009000900000000004040208011000A00C4
:101FD00004001800200023402400180000001F8087
:101FE0002040274029401F400000004007C0390022
:101FF0000F0001C0004020403FC0244024401B800F
:1020000000001F8020402040204030800000204001
:102010003FC0204020401F80000020403FC024409F
:102020002E4030C0000020403FC024402E00300031
:1020300000000F001080204022403380020020402A
:102040003FC0040004003FC02040204020403FC06B
:102050002040204000000060202020203FC02000C1
:10206000200020403FC024400B0030C020402040D2
:102070003FC020400040004000C03FC03C0003C0C3
:102080003C003FC0000020403FC00C4023003FC048
:1020900020001F802040204020401F800000204062
:1020A0003FC024402400180000001F802140214030
:1020B00020E01FA0000020403FC02440260019C09F
:1020C000004018C0244024402240318000003000ED
:1020D00020403FC020403000000020003F800040F2
:1020E00000403F80200020003E0001C00700380073
:1020F0002000380007C03C0007C038000000204026
:1021000039C0060039C0204000002000384007C018
:10211000384020000000304021C02640384020C018
:102120000000000000007FE0402040200000000090
:1021300070000C00038000400000000040204020A0
:102140007FE00000000000002000400020000000B0
:10215000000000100010001000100010001000001F
:102160000000400000000000000000000280054068
:10217000054003C0004020003FC0044004400380ED
:1021800000000000038004400440064000000000FE
:102190000380044024403FC000400000038005400D
:1021A000054003400000000004401FC024402440BC
:1021B0002000000002E00550055006500420204099
:1021C0003FC00440040003C000400000044027C09A
:1021D00000400000000000100010041027E0000084
:1021E000000020403FC00140070004C004402040E0
:1021F00020403FC000400040000007C0040007C06E
:10220000040003C00000044007C00440040003C0F1
:1022100000400000038004400440038000000410DC
:1022200007F00450044003800000000003800440D5
:10223000045007F00010044007C0024004000400EE
:102240000000000006400540054004C000000000FA
:1022500004001F800440004000000400078000408C
:10226000044007C000400400070004C001800600CD
:102270000400060001C0070001C006000000044081
:1022800006C0010006C0044000000410071004E06E
:102290000180060004000000044005C00640044020
:1022A00000000000000004007BE04020000000006F
:1022B00000000000FFF000000000000040207BE074
:1022C00004000000000040008000400020002000CA
:1022D00040000000000000000000000000000000BE
:1022E00000000000000000001FCC000C00000000F7
:1022F00000000000080030006000080030006000AE
:102300000000022003FC1E20022003FC1E200220ED
:10231000000000000E1811043FFF10840C7800002C
:1023200000000F0010840F3800C007781884007870
:10233000000000780F8410C411240E9800E400847B
:1023400000080800680070000000000000000000A5
:10235000000000000000000007E018182004400200
:102360000000000040022004181807E000000000F0
:1023700000000240024001800FF001800240024054
:1023800000000080008000800FF800800080008046
:1023900000000001000D000E000000000000000021
:1023A000000000000080008000800080008000802D
:1023B00000800000000C000C000000000000000085
:1023C00000000000000600180060018006001800F0
:1023D0002000000007F0080810041004080807F0A7
:1023E00000000000080408041FFC000400040000B2
:1023F000000000000E0C10141024104411840E0C68
:10240000000000000C1810041104110412880C7054
:102410000000000000E00320042408241FFC002426
:10242000000000001F98108411041104108810701F
:102430000000000007F008881104110418880070DB
:10244000000000001C00100010FC13001C00100015
:10245000000000000E3811441084108411440E381E
:10246000000000000700088C10441044088807F0A2
:102470000000000000000000030C030C000000003E
:102480000000000000000001010600000000000044
:102490000000000000800140022004100808100421
:1024A000000002200220022002200220022002203E
:1024B0000000000010040808041002200140008001
:1024C000000000000E001200100C106C10800F00B5
:1024D000000003E00C1813E4142417C4082807D0E4
:1024E00000000004003C03C41C40074000E4001C42
:1024F000000410041FFC1104110411040E88007064
:10250000000003E00C1810041004100410081C1044
:10251000000010041FFC100410041004080807F049
:10252000000010041FFC1104110417C41004081843
:10253000000010041FFC1104110017C01000080057
:10254000000003E00C181004100410441C78004034
:10255000000010041FFC10840080008010841FFC09
:1025600010040000100410041FFC100410040000EC
:10257000000000030001100110011FFE10001000F8
:10258000000010041FFC110403801464181C1004C4
:10259000000010041FFC1004000400040004000CE0
:1025A000000010041FFC1F0000FC1F001FFC100493
:1025B000000010041FFC0C04030000E010181FFCB6
:1025C000100007F00808100410041004080807F0B1
:1025D000000010041FFC10841080108010800F0079
:1025E000000007F0081810241024101C080A07F235
:1025F000000010041FFC1104110011C011300E0C5A
:10260000000400000E1C11041084108410441C38B7
:1026100000001800100010041FFC10041000180027
:10262000000010001FF810040004000410041FF83C
:10263000100010001E0011E0001C007013801C0030
:1026400010001FC0103C00E01F0000E0103C1FC045
:1026500000001004180C163401C001C01634180C08
:10266000100410001C00130400FC13041C001000D4
:1026700000000804101C1064108413041C041018BB
:1026800000000000000000007FFE40024002400207
:102690000000000030000C0003800060001C0003FC
:1026A000000000004002400240027FFE00000000E7
:1026B000000000000000200040004000400020001A
:1026C0000000000100010001000100010001000103
:1026D0000001000040004000200000000000000059
:1026E000000000000098012401440144014400FC62
:1026F000000410001FFC0088010401040088007021
:10270000000000000070008801040104010400883A
:1027100000000000007000880104010411081FFC83
:102720000004000000F8014401440144014400C8D1
:1027300000000000010401040FFC11041104110049
:102740001800000000D601290129012901C901064C
:10275000000010041FFC008401000100010400FCC3
:10276000000400000104190419FC00040004000026
:1027700000000000000300010101190119FE000022
:10278000000010041FFC0024004001B4010C0104EF
:1027900000000000100410041FFC000400040000EE
:1027A0000000010401FC0104010001FC010401001E
:1027B00000FC010401FC008401000100010400FC94
:1027C0000004000000F8010401040104010400F801
:1027D0000000010101FF0085010401040088007070
:1027E000000000000070008801040104010501FFE1
:1027F00000010104010401FC0084010401000180C6
:102800000000000000CC01240124012401240198CF
:10281000000000000100010007F8010401040000AD
:102820000000010001F8000400040004010801FC9C
:102830000004010001800170000C001001600180A3
:10284000010001F0010C003001C00030010C01F06A
:10285000010000000104018C00740170018C01046E
:102860000000010101810171000E0018016001806A
:10287000010000000184010C013401440184010CB9
:102880000000000000000000000001003EFC4002CB
:1028900040020000000000000000FFFF00000000F8
:1028A00000000000400240023EFC01000000000069
:1028B0000000000060008000800040004000200018
:1028C00020000000000000000000000000000000E8
:1028D00000000000000000000000000000000000F8
:1028E00000000000000000000000000000000000E8
:1028F00000000000000F80380FFE380F8038000005
:1029000000000000000000000000000000000000C7
:102910000100000600000C00003800003100000635
:1029200000000C0000380000300000000000000033
:10293000000061800067F807F98000618000618015
:102940000061800061800067F807F9800061800005
:10295000000000000000000001C0E003E0F00630CD
:10296000080418081FFFFE040E080787F00381E023
:1029700000000000000001F000060C00040408063E
:102980000C7001F9C0000E00003BE000EC180708D5
:1029900008040C180003E00000000001E00007F04C
:1029A00003F818041C0804170807E1D003C0E0006E
:1029B00023B0003C080020080000100000000000C8
:1029C000000100003100003200001C000000000087
:1029D00000000000000000000000000000000000F7
:1029E00000000000000000000000000000000000E7
:1029F00000007F0001FFC00780F00C0018100004E9
:102A00002000020000000000002000021000040C62
:102A100000180780F001FFC0007F000000000000E8
:102A20000000000000000000000000000000420064
:102A3000006600006600003C0000180003FFC000B4
:102A40001800003C00006600006600004200000024
:102A5000000008000008000008000008000008004E
:102A600001FFC00008000008000008000008000086
:102A700008000000000000010000310000320000EA
:102A80001C0000000000000000000000000000002A
:102A90000000000000000000000008000008000026
:102AA00008000008000008000008000008000008F6
:102AB0000000080000080000000000000000000006
:102AC000000038000038000038000000000000005E
:102AD00000000000000000000000000000000000F6
:102AE0000000000600001C000070000180000E00C5
:102AF00000380000C0000700001C0000300000008B
:102B00000000000000007F8001FFE00380700600ED
:102B10001804000804000806001803807001FFE094
:102B2000007F80000000000000000000010008019C
:102B3000000801000803FFF807FFF8000008000084
:102B40000800000800000000000000000001C0387C
:102B500002C058040098040118040218040418065E
:102B60001C1803F81801E0F8000000000000000045
:102B70000001C0E003C0F0040008040808040808CD
:102B800006180803F41801E7F00001E00000000057
:102B90000000000000000300000D000011000061B3
:102BA0000000810803010807FFF80FFFF800010883
:102BB0000001080000000000000000E007FCD00653
:102BC0000808061008061008061008061838060F30
:102BD000F00607C0000000000000000000003F8079
:102BE00001FFE003843002081804100804100804F0
:102BF0001008071810030FF00007C00000000000C5
:102C00000000000003C0000700000600000600F8F6
:102C10000607F806180006E000070000060000009E
:102C2000000000000001E1E003F7F0063410041892
:102C300008041808040C08040C0806161803F3F01E
:102C400001C1E000000000000000F80003FC3003B8
:102C500006380402080402080402080404100308E9
:102C6000F001FFC0007F0000000000000000000035
:102C70000000000000000000000070380070380004
:102C8000703800000000000000000000000000009C
:102C90000000000000000000000000000000301AEA
:102CA00000301C00000000000000000000000000D8
:102CB00000000000000000000008000014000022D6
:102CC000000041000080800100400200200400104C
:102CD00008000800000000000000210000210000A2
:102CE000210000210000210000210000210000211E
:102CF0000000210000210000000000000000000092
:102D0000080008040010020020010040008080003C
:102D10004100002200001400000800000000000034
:102D20000003C00004C000040000080038080F3889
:102D30000808380810000C300007E00003C000004D
:102D40000000000000003F8000FFE0038070020FE1
:102D50001006708804C088048308047F8802C0902D
:102D600003012000FE400000080000180001F800E8
:102D70003E0801C20007020007E20000FE00001F3B
:102D8000C80001F800003800000804000807FFF838
:102D900007FFF804080804080804080804080806DF
:102DA000180803F41801E7F00001E000000000003B
:102DB00000003F8001FFE00380700200180400085B
:102DC0000400080400080400100600200780C0006A
:102DD000000004000807FFF807FFF80400080400DB
:102DE0000804000804001802001003807001FFE0CE
:102DF000007F8000000004000807FFF807FFF804C8
:102E00000808040808040808040808043E08040028
:102E10000806001801006000000004000807FFF821
:102E200007FFF80408080408000408000408000468
:102E30003E000600000600000180000000000000C7
:102E400000003F8001FFE0038070060018040008C6
:102E50000402080402080203F00783F000020000E5
:102E6000020004000807FFF807FFF804080800083C
:102E70000000080000080000080004080807FFF828
:102E800007FFF80400080000000000000400080428
:102E9000000804000807FFF807FFF8040008040012
:102EA0000804000800000000000000000000000608
:102EB00000000700000104000104000104000307F2
:102EC000FFFE07FFFC0400000400000400000400F3
:102ED0000807FFF807FFF8040C08001800003E0080
:102EE00004C7800503C80600F80400380400180071
:102EF000000804000807FFF807FFF80400080000B6
:102F00000800000800000800000800000800001881
:102F100000006000000004000807FFF807800807B1
:102F2000FC00007FC00003F80007C00078000780A5
:102F30000807FFF807FFF804000804000807FFF877
:102F400007000803C00000E000003800001E000079
:102F500007000001C00400F007FFF80400000000B3
:102F600000007F8001FFE003807006001804000865
:102F700004000806001803003001FFE0007F800015
:102F8000000004000807FFF807FFF8040408040421
:102F900000040400040400040400060C0003F8000C
:102FA00001F000000000000000007F8001FFE0034E
:102FB00080700600880400880400C806003C0300F6
:102FC0003E01FFE6007F8400000004000807FFF8D0
:102FD00007FFF8040808040800040C00040F0004AC
:102FE0000BC00610F003F03801E0080000080000F4
:102FF0000001E0F803F03006301004180804180847
:10300000040C08040C080206180207F00781E0000F
:10301000000001800006000004000004000004001D
:103020000807FFF807FFF804000804000004000088
:1030300006000001800004000007FFE007FFF00425
:103040000018000008000008000008000008000048
:103050000804001007FFE004000004000006000060
:1030600007E00007FE00041FE00001F80000380040
:1030700001E0043E0007C000060000040000040058
:103080000007E00007FFC0041FF80007C007F800B2
:1030900007FF80043FF80007C004F80007000004A1
:1030A000000000000004000806001807C07805F1C1
:1030B000C8003E00001F800463E80780F80600187F
:1030C000040008000000040000060000078000075C
:1030D000E008047C08001FF80007F800180804E066
:1030E00008070000060000040000000000010008BE
:1030F0000600380400F80403E8040F08047C0805FF
:10310000F00807C008070018040060000000000075
:10311000000000000000000000000000003FFFFE73
:1031200020000220000220000220000220000200F5
:10313000000000000000000008000007000000C0C0
:10314000000038000006000001C000003000000E42
:10315000000001000000000000000000200002202C
:1031600000022000022000022000023FFFFE0000BB
:10317000000000000000000000000000000000004F
:1031800000000008000010000030000020000030A7
:103190000000100000080000000000000000000017
:1031A0000100000100000100000100000100000119
:1031B000000001000001000001000001000001000A
:1031C00000010000000000000000002000002000BE
:1031D00000100000100000000000000000000000CF
:1031E0000000000000000000000000F00019F800DE
:1031F0001B18002208002608002408002410003FA5
:10320000F8001FF80000080000180000000400008B
:1032100007FFF80FFFF00018180010080020080042
:103220002008003018001FF0000FC0000000000050
:10323000000007C0001FF000183000200800200820
:10324000002008003C08001C100000600000000086
:1032500000000000000007C0001FF0003818002028
:103260000800200800200804101007FFF80FFFF0E6
:103270000000100000000000000000000007C00077
:103280001FF000123000221800220800220800322D
:1032900008001E10000E20000000000000002000AA
:1032A00000200800200801FFF803FFF806200804AA
:1032B0002008042008072000030000000000000090
:1032C0000000000E000E6E001FF30031B10020B1AF
:1032D0000020B1003191001F13002E1E00200E00AF
:1032E000300000000004000807FFF80FFFF800108E
:1032F00008002000002000002008003FF8001FF810
:10330000000008000000000000000000002008008D
:103310002008002008063FF8063FF80000080000DB
:10332000080000080000000000000000000000008D
:10333000000003000003002001002001002003061C
:103340003FFE063FFC0000000000000000000000FF
:103350000004000807FFF80FFFF8000188000300D1
:10336000002FC00038F800203800200800000800B6
:103370000000000000000000040008040008040031
:103380000807FFF80FFFF800000800000800000819
:10339000000000000000002008003FF8003FF80097
:1033A0001008002000003FF8003FF800100800203F
:1033B00000003FF8003FF80000080000000020086F
:1033C000003FF8003FF80010080010000020000047
:1033D0002008003FF8001FF800000800000000006F
:1033E000000007C0000FF00018300030080020086F
:1033F000002008003008001830000FF00007C0005F
:103400000000000000002001003FFF003FFF00100F
:1034100011002009002008002008003038001FF0AB
:10342000000FC00000000000000007C0001FF000F7
:103430003818002008002008002009001011001F83
:10344000FF003FFF000001000000002008002008EE
:10345000002008003FF8003FF800080800100800AE
:1034600020080020000030000030000000000000B4
:1034700000000000000C78001E180033080023082C
:103480000021080021880021980030F000386000F9
:10349000000000000000200000200000200000FFCD
:1034A000F003FFF80020080020080020080000308A
:1034B000000000000000000000002000003FF000BD
:1034C0007FF8000018000008000008002010003FEE
:1034D000F8007FF000001000000000000000200055
:1034E000003000003C00003F800023F00000780026
:1034F0000070002380003C0000300000200000200D
:1035000000003C00003FE00023F80000E00027003E
:10351000003E00003FE00021F80001E0003E000016
:103520002000000000002008002008003838003E7D
:10353000680027800003C8002CF8003838002018E5
:103540000020080000000000000020000030030000
:103550003C01003F830023EC000070002380003C0E
:10356000000020000020000000000000000000001B
:103570000038080020380020F80023E8002F8800D9
:103580003E0800380800201800007000000000000D
:103590000000000000000000000000000000080023
:1035A0000014001FF7FC300006200002000000009D
:1035B000000000000000000000000000000000000B
:1035C00000000000FFFFFF000000000000000000FE
:1035D0000000000000000000000000002000023099
:1035E00000061FF7FC0014000008000000000000A7
:1035F00000000000000000000000000000180000B3
:1036000060000040000040000020000010000008A2
:1036100000000400000400000C00001000004C45F5
:103620004430204F6E0D0A004C454430204F6666F2
:103630000D0A004C454430205475726E0D0A004C42
:10364000454420737563636573730D0A00000000C1
:103650007036000800000020EC000000B0140008E4
:103660005C370008EC000020AC090000C014000822
:1036700000000000100000000100000000127A00AD
:10368000000000000000312E43616C63756C6174B2
:103690006F7200322E4C454420436F6E74726F6C13
:1036A00000332E536E616B652047616D6500342ECB
:1036B00053657269616C205465737400352E5465CE
:1036C00073743100362E546573743200372E54658E
:1036D00073743300382E5465737434000A0000008C
:1036E0000000000016000020100100000A00000089
:1036F0001000000023000020100000000A0000005D
:103700002000000031000020100000000A0000002E
:10371000300000003E000020100000000A00000001
:10372000400000004C000020100000000A000000D3
:103730005000000054000020100000000A000000AB
:10374000600000005C000020100000000A00000083
:0C37500070000000640000201000000069
:04000005080000ED02
:00000001FF
